{
  "contractName": "BankToken",
  "abi": [
    {
      "inputs": [
        {
          "internalType": "contract MattCoin",
          "name": "_mattCoin",
          "type": "address"
        },
        {
          "internalType": "contract IERC20",
          "name": "_cUSD",
          "type": "address"
        }
      ],
      "stateMutability": "nonpayable",
      "type": "constructor"
    },
    {
      "inputs": [],
      "name": "cUSD",
      "outputs": [
        {
          "internalType": "contract IERC20",
          "name": "",
          "type": "address"
        }
      ],
      "stateMutability": "view",
      "type": "function",
      "constant": true
    },
    {
      "inputs": [],
      "name": "mattCoin",
      "outputs": [
        {
          "internalType": "contract MattCoin",
          "name": "",
          "type": "address"
        }
      ],
      "stateMutability": "view",
      "type": "function",
      "constant": true
    },
    {
      "inputs": [],
      "name": "name",
      "outputs": [
        {
          "internalType": "string",
          "name": "",
          "type": "string"
        }
      ],
      "stateMutability": "view",
      "type": "function",
      "constant": true
    },
    {
      "inputs": [
        {
          "internalType": "address",
          "name": "",
          "type": "address"
        }
      ],
      "name": "pendingCoins",
      "outputs": [
        {
          "internalType": "uint256",
          "name": "",
          "type": "uint256"
        }
      ],
      "stateMutability": "view",
      "type": "function",
      "constant": true
    },
    {
      "inputs": [
        {
          "internalType": "address",
          "name": "",
          "type": "address"
        }
      ],
      "name": "stakingBalance",
      "outputs": [
        {
          "internalType": "uint256",
          "name": "amount",
          "type": "uint256"
        },
        {
          "internalType": "uint256",
          "name": "timestamp",
          "type": "uint256"
        },
        {
          "internalType": "bool",
          "name": "flexible",
          "type": "bool"
        },
        {
          "internalType": "uint256",
          "name": "period",
          "type": "uint256"
        }
      ],
      "stateMutability": "view",
      "type": "function",
      "constant": true
    },
    {
      "inputs": [
        {
          "internalType": "uint256",
          "name": "_amount",
          "type": "uint256"
        },
        {
          "internalType": "uint256",
          "name": "timestamp",
          "type": "uint256"
        },
        {
          "internalType": "bool",
          "name": "flexible",
          "type": "bool"
        },
        {
          "internalType": "uint256",
          "name": "period",
          "type": "uint256"
        }
      ],
      "name": "stakeTokens",
      "outputs": [],
      "stateMutability": "nonpayable",
      "type": "function"
    }
  ],
  "bytecode": "0x60806040526040518060400160405280601081526020017f7374616b652042616e6b20546f6b656e0000000000000000000000000000000081525060019080519060200190620000519291906200014f565b503480156200005f57600080fd5b506040516200119e3803806200119e8339818101604052810190620000859190620002c2565b336000806101000a81548173ffffffffffffffffffffffffffffffffffffffff021916908373ffffffffffffffffffffffffffffffffffffffff16021790555081600360006101000a81548173ffffffffffffffffffffffffffffffffffffffff021916908373ffffffffffffffffffffffffffffffffffffffff16021790555080600260006101000a81548173ffffffffffffffffffffffffffffffffffffffff021916908373ffffffffffffffffffffffffffffffffffffffff16021790555050506200036e565b8280546200015d9062000338565b90600052602060002090601f016020900481019282620001815760008555620001cd565b82601f106200019c57805160ff1916838001178555620001cd565b82800160010185558215620001cd579182015b82811115620001cc578251825591602001919060010190620001af565b5b509050620001dc9190620001e0565b5090565b5b80821115620001fb576000816000905550600101620001e1565b5090565b600080fd5b600073ffffffffffffffffffffffffffffffffffffffff82169050919050565b6000620002318262000204565b9050919050565b6000620002458262000224565b9050919050565b620002578162000238565b81146200026357600080fd5b50565b60008151905062000277816200024c565b92915050565b60006200028a8262000224565b9050919050565b6200029c816200027d565b8114620002a857600080fd5b50565b600081519050620002bc8162000291565b92915050565b60008060408385031215620002dc57620002db620001ff565b5b6000620002ec8582860162000266565b9250506020620002ff85828601620002ab565b9150509250929050565b7f4e487b7100000000000000000000000000000000000000000000000000000000600052602260045260246000fd5b600060028204905060018216806200035157607f821691505b6020821081141562000368576200036762000309565b5b50919050565b610e20806200037e6000396000f3fe608060405234801561001057600080fd5b50600436106100625760003560e01c806306fdde03146100675780631fccf6721461008557806320e1fc94146100a357806345bc78ab146100d357806376e3a5a414610106578063c99463a314610122575b600080fd5b61006f610140565b60405161007c9190610745565b60405180910390f35b61008d6101ce565b60405161009a91906107e6565b60405180910390f35b6100bd60048036038101906100b89190610844565b6101f4565b6040516100ca919061088a565b60405180910390f35b6100ed60048036038101906100e89190610844565b61020c565b6040516100fd94939291906108c0565b60405180910390f35b610120600480360381019061011b919061095d565b610249565b005b61012a610608565b60405161013791906109e5565b60405180910390f35b6001805461014d90610a2f565b80601f016020809104026020016040519081016040528092919081815260200182805461017990610a2f565b80156101c65780601f1061019b576101008083540402835291602001916101c6565b820191906000526020600020905b8154815290600101906020018083116101a957829003601f168201915b505050505081565b600260009054906101000a900473ffffffffffffffffffffffffffffffffffffffff1681565b60056020528060005260406000206000915090505481565b60046020528060005260406000206000915090508060000154908060010154908060020160009054906101000a900460ff16908060030154905084565b6000841161028c576040517f08c379a000000000000000000000000000000000000000000000000000000000815260040161028390610aad565b60405180910390fd5b61029461062e565b6102d3576040517f08c379a00000000000000000000000000000000000000000000000000000000081526004016102ca90610b3f565b60405180910390fd5b8115610321576000811461031c576040517f08c379a000000000000000000000000000000000000000000000000000000000815260040161031390610bd1565b60405180910390fd5b610365565b60008111610364576040517f08c379a000000000000000000000000000000000000000000000000000000000815260040161035b90610c63565b60405180910390fd5b5b600260009054906101000a900473ffffffffffffffffffffffffffffffffffffffff1673ffffffffffffffffffffffffffffffffffffffff166323b872dd60008054906101000a900473ffffffffffffffffffffffffffffffffffffffff1630876040518463ffffffff1660e01b81526004016103e493929190610c92565b602060405180830381600087803b1580156103fe57600080fd5b505af1158015610412573d6000803e3d6000fd5b505050506040513d601f19601f820116820180604052508101906104369190610cde565b506040518060800160405280858152602001848152602001831515815260200182815250600460008060009054906101000a900473ffffffffffffffffffffffffffffffffffffffff1673ffffffffffffffffffffffffffffffffffffffff1673ffffffffffffffffffffffffffffffffffffffff168152602001908152602001600020600082015181600001556020820151816001015560408201518160020160006101000a81548160ff02191690831515021790555060608201518160030155905050811561057e576001600560008060009054906101000a900473ffffffffffffffffffffffffffffffffffffffff1673ffffffffffffffffffffffffffffffffffffffff1673ffffffffffffffffffffffffffffffffffffffff16815260200190815260200160002060008282546105729190610d3a565b92505081905550610602565b80600261058b9190610d90565b600560008060009054906101000a900473ffffffffffffffffffffffffffffffffffffffff1673ffffffffffffffffffffffffffffffffffffffff1673ffffffffffffffffffffffffffffffffffffffff16815260200190815260200160002060008282546105fa9190610d3a565b925050819055505b50505050565b600360009054906101000a900473ffffffffffffffffffffffffffffffffffffffff1681565b600080600460008060009054906101000a900473ffffffffffffffffffffffffffffffffffffffff1673ffffffffffffffffffffffffffffffffffffffff1673ffffffffffffffffffffffffffffffffffffffff1681526020019081526020016000206000015411156106a457600190506106a9565b600090505b90565b600081519050919050565b600082825260208201905092915050565b60005b838110156106e65780820151818401526020810190506106cb565b838111156106f5576000848401525b50505050565b6000601f19601f8301169050919050565b6000610717826106ac565b61072181856106b7565b93506107318185602086016106c8565b61073a816106fb565b840191505092915050565b6000602082019050818103600083015261075f818461070c565b905092915050565b600073ffffffffffffffffffffffffffffffffffffffff82169050919050565b6000819050919050565b60006107ac6107a76107a284610767565b610787565b610767565b9050919050565b60006107be82610791565b9050919050565b60006107d0826107b3565b9050919050565b6107e0816107c5565b82525050565b60006020820190506107fb60008301846107d7565b92915050565b600080fd5b600061081182610767565b9050919050565b61082181610806565b811461082c57600080fd5b50565b60008135905061083e81610818565b92915050565b60006020828403121561085a57610859610801565b5b60006108688482850161082f565b91505092915050565b6000819050919050565b61088481610871565b82525050565b600060208201905061089f600083018461087b565b92915050565b60008115159050919050565b6108ba816108a5565b82525050565b60006080820190506108d5600083018761087b565b6108e2602083018661087b565b6108ef60408301856108b1565b6108fc606083018461087b565b95945050505050565b61090e81610871565b811461091957600080fd5b50565b60008135905061092b81610905565b92915050565b61093a816108a5565b811461094557600080fd5b50565b60008135905061095781610931565b92915050565b6000806000806080858703121561097757610976610801565b5b60006109858782880161091c565b94505060206109968782880161091c565b93505060406109a787828801610948565b92505060606109b88782880161091c565b91505092959194509250565b60006109cf826107b3565b9050919050565b6109df816109c4565b82525050565b60006020820190506109fa60008301846109d6565b92915050565b7f4e487b7100000000000000000000000000000000000000000000000000000000600052602260045260246000fd5b60006002820490506001821680610a4757607f821691505b60208210811415610a5b57610a5a610a00565b5b50919050565b7f616d6f756e74206e6565647320746f20626520706f7369746976650000000000600082015250565b6000610a97601b836106b7565b9150610aa282610a61565b602082019050919050565b60006020820190508181036000830152610ac681610a8a565b9050919050565b7f6f6e6c792031207374616b6520706572206163636f756e7420697320616c6c6f60008201527f7765640000000000000000000000000000000000000000000000000000000000602082015250565b6000610b296023836106b7565b9150610b3482610acd565b604082019050919050565b60006020820190508181036000830152610b5881610b1c565b9050919050565b7f666c657869626c65207374616b696e672073686f756c64206e6f74206861766560008201527f20666978656420706572696f6473000000000000000000000000000000000000602082015250565b6000610bbb602e836106b7565b9150610bc682610b5f565b604082019050919050565b60006020820190508181036000830152610bea81610bae565b9050919050565b7f6c6f636b6564207374616b696e672073686f756c64206861766520706f73697460008201527f69766520706572696f6473000000000000000000000000000000000000000000602082015250565b6000610c4d602b836106b7565b9150610c5882610bf1565b604082019050919050565b60006020820190508181036000830152610c7c81610c40565b9050919050565b610c8c81610806565b82525050565b6000606082019050610ca76000830186610c83565b610cb46020830185610c83565b610cc1604083018461087b565b949350505050565b600081519050610cd881610931565b92915050565b600060208284031215610cf457610cf3610801565b5b6000610d0284828501610cc9565b91505092915050565b7f4e487b7100000000000000000000000000000000000000000000000000000000600052601160045260246000fd5b6000610d4582610871565b9150610d5083610871565b9250827fffffffffffffffffffffffffffffffffffffffffffffffffffffffffffffffff03821115610d8557610d84610d0b565b5b828201905092915050565b6000610d9b82610871565b9150610da683610871565b9250817fffffffffffffffffffffffffffffffffffffffffffffffffffffffffffffffff0483118215151615610ddf57610dde610d0b565b5b82820290509291505056fea2646970667358221220fc65385c67165f75678639f31fd0011258d87ceab724277fcabd9a27e97fb83764736f6c63430008090033",
  "immutableReferences": {},
  "source": "// SPDX-License-Identifier: MIT\npragma solidity >=0.4.22 <0.9.0;\n\nimport \"./IERC20.sol\";\nimport \"./MattCoin.sol\";\n\nlibrary Library {\n    struct stake {\n        uint256 amount;\n        uint256 timestamp;\n        bool flexible;\n        uint256 period; // for locked staking\n    }\n}\n\ncontract BankToken {\n    address private owner;\n\n    string public name = \"stake Bank Token\";\n    IERC20 public cUSD;\n    MattCoin public mattCoin;\n\n    using Library for Library.stake;\n    mapping(address => Library.stake) public stakingBalance;\n    mapping(address => uint256) public pendingCoins;\n\n    // constructor\n\n    // cUSD (Alfajores testnet) = \"0x874069Fa1Eb16D44d622F2e0Ca25eeA172369bC1\"\n    // cUSD (Celo mainnet) =      \"0x765DE816845861e75A25fCA122bb6898B8B1282a\"\n    constructor(MattCoin _mattCoin, IERC20 _cUSD) {\n        owner = msg.sender;\n        mattCoin = _mattCoin;\n        cUSD = _cUSD;\n    }\n\n    // fallback function (if exists)\n\n    // external\n\n    // public\n\n    // 1 stakes Tokens (get rewards)\n    function stakeTokens(\n        uint256 _amount,\n        uint256 timestamp,\n        bool flexible,\n        uint256 period\n    ) public {\n        require(_amount > 0, \"amount needs to be positive\"); // raise ex if is false\n        require(ownerStaking(), \"only 1 stake per account is allowed\");\n\n        if (flexible) {\n            require(\n                period == 0,\n                \"flexible staking should not have fixed periods\"\n            );\n        } else {\n            require(period > 0, \"locked staking should have positive periods\");\n        }\n\n        // Trasnfer cUSD tokens to this contract for staking\n        cUSD.transferFrom(owner, address(this), _amount);\n\n        // update staking balance\n        stakingBalance[owner] = Library.stake(\n            _amount,\n            timestamp,\n            flexible,\n            period\n        );\n\n        if (flexible) {\n            // give 1 per day\n            pendingCoins[owner] += 1;\n        } else {\n            // give 2 per day\n            pendingCoins[owner] += 2 * period;\n        }\n    }\n\n    function ownerFlexibleStaking() private view returns (bool) {\n        if (stakingBalance[owner].flexible) {\n            return true;\n        }\n        return false;\n    }\n\n    // internal\n    // private\n\n    function ownerStaking() private view returns (bool) {\n        if (stakingBalance[owner].amount > 0) {\n            return true;\n        }\n        return false;\n    }\n}\n",
  "sourcePath": "/Users/mberrueta/code/courses/blockchain/tutorials/celo/celo_dev101_challenge/contracts/BankToken.sol",
  "compiler": {
    "name": "solc",
    "version": "0.8.9+commit.e5eed63a.Emscripten.clang"
  },
  "schemaVersion": "3.4.3",
  "updatedAt": "2021-11-22T15:11:47.944Z",
  "networkType": "ethereum",
  "devdoc": {
    "kind": "dev",
    "methods": {},
    "version": 1
  },
  "userdoc": {
    "kind": "user",
    "methods": {},
    "version": 1
  }
}